:100000000C942A000C9434000C9434000C943400AA
:100010000C9434000C9434000C9434000C94340090
:100020000C9434000C9434000C9434000C94340080
:100030000C9434000C9434000C9434000C94340070
:100040000C9434000C9434000C9434000C94340060
:100050000C94340011241FBECFE5D8E0DEBFCDBF25
:100060000E9436000C944F000C9400008FEF8ABB66
:1000700090E012C0E3EDF0E33197F1F700C000002B
:10008000E3EDF0E33197F1F700C000008F5F01C0AE
:1000900080E08A3078F39F5F9A30D0F3E9CFF8940C
:0200A000FFCF90
:00000001FF
